{
  "contractName": "FileStorage",
  "abi": [
    {
      "inputs": [
        {
          "internalType": "uint256",
          "name": "",
          "type": "uint256"
        }
      ],
      "name": "files",
      "outputs": [
        {
          "internalType": "string",
          "name": "name",
          "type": "string"
        },
        {
          "internalType": "string",
          "name": "hash",
          "type": "string"
        }
      ],
      "stateMutability": "view",
      "type": "function",
      "constant": true
    },
    {
      "inputs": [
        {
          "internalType": "string",
          "name": "_name",
          "type": "string"
        },
        {
          "internalType": "string",
          "name": "_hash",
          "type": "string"
        }
      ],
      "name": "addFile",
      "outputs": [],
      "stateMutability": "nonpayable",
      "type": "function"
    },
    {
      "inputs": [
        {
          "internalType": "string",
          "name": "_name",
          "type": "string"
        }
      ],
      "name": "getFileHash",
      "outputs": [
        {
          "internalType": "string",
          "name": "",
          "type": "string"
        }
      ],
      "stateMutability": "view",
      "type": "function",
      "constant": true
    },
    {
      "inputs": [
        {
          "internalType": "string",
          "name": "_name",
          "type": "string"
        }
      ],
      "name": "getFile",
      "outputs": [
        {
          "internalType": "string",
          "name": "",
          "type": "string"
        },
        {
          "internalType": "string",
          "name": "",
          "type": "string"
        }
      ],
      "stateMutability": "view",
      "type": "function",
      "constant": true
    }
  ],
  "bytecode": "0x608060405234801561001057600080fd5b50610ca4806100206000396000f3fe608060405234801561001057600080fd5b506004361061004c5760003560e01c8063248bfc3b14610051578063e0876aa81461006d578063f4c714b41461009e578063f880680b146100cf575b600080fd5b61006b6004803603810190610066919061083f565b6100ff565b005b610087600480360381019061008291906108b7565b61017f565b604051610095929190610988565b60405180910390f35b6100b860048036038101906100b391906109f5565b61039a565b6040516100c6929190610988565b60405180910390f35b6100e960048036038101906100e491906108b7565b6104de565b6040516100f69190610a22565b60405180910390f35b60006040518060400160405280848152602001838152509080600181540180825580915050600190039060005260206000209060020201600090919091909150600082015181600001908051906020019061015b929190610642565b506020820151816001019080519060200190610178929190610642565b5050505050565b60608060005b600080549050811015610359578380519060200120600082815481106101ae576101ad610a44565b5b90600052602060002090600202016000016040516101cc9190610b73565b6040518091039020141561034657600081815481106101ee576101ed610a44565b5b90600052602060002090600202016000016000828154811061021357610212610a44565b5b906000526020600020906002020160010181805461023090610aa2565b80601f016020809104026020016040519081016040528092919081815260200182805461025c90610aa2565b80156102a95780601f1061027e576101008083540402835291602001916102a9565b820191906000526020600020905b81548152906001019060200180831161028c57829003601f168201915b505050505091508080546102bc90610aa2565b80601f01602080910402602001604051908101604052809291908181526020018280546102e890610aa2565b80156103355780601f1061030a57610100808354040283529160200191610335565b820191906000526020600020905b81548152906001019060200180831161031857829003601f168201915b505050505090509250925050610395565b808061035190610bb9565b915050610185565b506040517f08c379a000000000000000000000000000000000000000000000000000000000815260040161038c90610c4e565b60405180910390fd5b915091565b600081815481106103aa57600080fd5b90600052602060002090600202016000915090508060000180546103cd90610aa2565b80601f01602080910402602001604051908101604052809291908181526020018280546103f990610aa2565b80156104465780601f1061041b57610100808354040283529160200191610446565b820191906000526020600020905b81548152906001019060200180831161042957829003601f168201915b50505050509080600101805461045b90610aa2565b80601f016020809104026020016040519081016040528092919081815260200182805461048790610aa2565b80156104d45780601f106104a9576101008083540402835291602001916104d4565b820191906000526020600020905b8154815290600101906020018083116104b757829003601f168201915b5050505050905082565b606060005b6000805490508110156106015782805190602001206000828154811061050c5761050b610a44565b5b906000526020600020906002020160000160405161052a9190610b73565b604051809103902014156105ee576000818154811061054c5761054b610a44565b5b9060005260206000209060020201600101805461056890610aa2565b80601f016020809104026020016040519081016040528092919081815260200182805461059490610aa2565b80156105e15780601f106105b6576101008083540402835291602001916105e1565b820191906000526020600020905b8154815290600101906020018083116105c457829003601f168201915b505050505091505061063d565b80806105f990610bb9565b9150506104e3565b506040517f08c379a000000000000000000000000000000000000000000000000000000000815260040161063490610c4e565b60405180910390fd5b919050565b82805461064e90610aa2565b90600052602060002090601f01602090048101928261067057600085556106b7565b82601f1061068957805160ff19168380011785556106b7565b828001600101855582156106b7579182015b828111156106b657825182559160200191906001019061069b565b5b5090506106c491906106c8565b5090565b5b808211156106e15760008160009055506001016106c9565b5090565b6000604051905090565b600080fd5b600080fd5b600080fd5b600080fd5b6000601f19601f8301169050919050565b7f4e487b7100000000000000000000000000000000000000000000000000000000600052604160045260246000fd5b61074c82610703565b810181811067ffffffffffffffff8211171561076b5761076a610714565b5b80604052505050565b600061077e6106e5565b905061078a8282610743565b919050565b600067ffffffffffffffff8211156107aa576107a9610714565b5b6107b382610703565b9050602081019050919050565b82818337600083830152505050565b60006107e26107dd8461078f565b610774565b9050828152602081018484840111156107fe576107fd6106fe565b5b6108098482856107c0565b509392505050565b600082601f830112610826576108256106f9565b5b81356108368482602086016107cf565b91505092915050565b60008060408385031215610856576108556106ef565b5b600083013567ffffffffffffffff811115610874576108736106f4565b5b61088085828601610811565b925050602083013567ffffffffffffffff8111156108a1576108a06106f4565b5b6108ad85828601610811565b9150509250929050565b6000602082840312156108cd576108cc6106ef565b5b600082013567ffffffffffffffff8111156108eb576108ea6106f4565b5b6108f784828501610811565b91505092915050565b600081519050919050565b600082825260208201905092915050565b60005b8381101561093a57808201518184015260208101905061091f565b83811115610949576000848401525b50505050565b600061095a82610900565b610964818561090b565b935061097481856020860161091c565b61097d81610703565b840191505092915050565b600060408201905081810360008301526109a2818561094f565b905081810360208301526109b6818461094f565b90509392505050565b6000819050919050565b6109d2816109bf565b81146109dd57600080fd5b50565b6000813590506109ef816109c9565b92915050565b600060208284031215610a0b57610a0a6106ef565b5b6000610a19848285016109e0565b91505092915050565b60006020820190508181036000830152610a3c818461094f565b905092915050565b7f4e487b7100000000000000000000000000000000000000000000000000000000600052603260045260246000fd5b7f4e487b7100000000000000000000000000000000000000000000000000000000600052602260045260246000fd5b60006002820490506001821680610aba57607f821691505b60208210811415610ace57610acd610a73565b5b50919050565b600081905092915050565b60008190508160005260206000209050919050565b60008154610b0181610aa2565b610b0b8186610ad4565b94506001821660008114610b265760018114610b3757610b6a565b60ff19831686528186019350610b6a565b610b4085610adf565b60005b83811015610b6257815481890152600182019150602081019050610b43565b838801955050505b50505092915050565b6000610b7f8284610af4565b915081905092915050565b7f4e487b7100000000000000000000000000000000000000000000000000000000600052601160045260246000fd5b6000610bc4826109bf565b91507fffffffffffffffffffffffffffffffffffffffffffffffffffffffffffffffff821415610bf757610bf6610b8a565b5b600182019050919050565b7f46696c65206e6f7420666f756e64000000000000000000000000000000000000600082015250565b6000610c38600e8361090b565b9150610c4382610c02565b602082019050919050565b60006020820190508181036000830152610c6781610c2b565b905091905056fea2646970667358221220ce36b4441054a182fb3edbf6cf0aed8355547a1cc4ab41e41e5d4925aff0bc5c64736f6c63430008090033",
  "immutableReferences": {},
  "source": "// SPDX-License-Identifier: MIT\npragma solidity >=0.4.22 <0.9.0;\n\ncontract FileStorage {\n    struct File {\n        string name;\n        string hash;\n    }\n    \n    File[] public files;\n    \n    function addFile(string memory _name, string memory _hash) public {\n        files.push(File(_name, _hash));\n    }\n    \n    function getFileHash(string memory _name) public view returns (string memory) {\n        for (uint i = 0; i < files.length; i++) {\n            if (keccak256(bytes(files[i].name)) == keccak256(bytes(_name))) {\n                return files[i].hash;\n            }\n        }\n        revert(\"File not found\");\n    }\n    \n    function getFile(string memory _name) public view returns (string memory, string memory) {\n        for (uint i = 0; i < files.length; i++) {\n            if (keccak256(bytes(files[i].name)) == keccak256(bytes(_name))) {\n                return (files[i].name, files[i].hash);\n            }\n        }\n        revert(\"File not found\");\n    }\n}",
  "sourcePath": "/home/kanka/san-mufid/backend/blockchain/contracts/FileStorage.sol",
  "compiler": {
    "name": "solc",
    "version": "0.8.9+commit.e5eed63a.Emscripten.clang"
  },
  "schemaVersion": "3.4.14",
  "updatedAt": "2023-07-03T22:17:13.866Z",
  "networkType": "ethereum",
  "devdoc": {
    "kind": "dev",
    "methods": {},
    "version": 1
  },
  "userdoc": {
    "kind": "user",
    "methods": {},
    "version": 1
  }
}